{"abi":[{"type":"function","name":"arithmeticError","inputs":[],"outputs":[{"name":"","type":"bytes","internalType":"bytes"}],"stateMutability":"view"},{"type":"function","name":"assertionError","inputs":[],"outputs":[{"name":"","type":"bytes","internalType":"bytes"}],"stateMutability":"view"},{"type":"function","name":"divisionError","inputs":[],"outputs":[{"name":"","type":"bytes","internalType":"bytes"}],"stateMutability":"view"},{"type":"function","name":"encodeStorageError","inputs":[],"outputs":[{"name":"","type":"bytes","internalType":"bytes"}],"stateMutability":"view"},{"type":"function","name":"enumConversionError","inputs":[],"outputs":[{"name":"","type":"bytes","internalType":"bytes"}],"stateMutability":"view"},{"type":"function","name":"indexOOBError","inputs":[],"outputs":[{"name":"","type":"bytes","internalType":"bytes"}],"stateMutability":"view"},{"type":"function","name":"lowLevelError","inputs":[],"outputs":[{"name":"","type":"bytes","internalType":"bytes"}],"stateMutability":"view"},{"type":"function","name":"memOverflowError","inputs":[],"outputs":[{"name":"","type":"bytes","internalType":"bytes"}],"stateMutability":"view"},{"type":"function","name":"popError","inputs":[],"outputs":[{"name":"","type":"bytes","internalType":"bytes"}],"stateMutability":"view"},{"type":"function","name":"zeroVarError","inputs":[],"outputs":[{"name":"","type":"bytes","internalType":"bytes"}],"stateMutability":"view"}],"bytecode":{"object":"0x6080806040523461001a57610351908161001f823930815050f35b5f80fdfe60806040908082526004361015610014575f80fd5b5f3560e01c90816305ee86121461028a5750806310332977146102565780631de45560146102225780638995290f146101ee578063986c5f68146101ba578063ac3d92c61461016d578063b22dc54d14610139578063b67689da14610105578063d160e4de146100d15763fa784a441461008c575f80fd5b5f3660031901126100cd57806100c9915190634e487b7160e01b602083015260126024830152602482526100bf826102b8565b51918291826102d4565b0390f35b5f80fd5b505f3660031901126100cd57806100c9915190634e487b7160e01b602083015260226024830152602482526100bf826102b8565b505f3660031901126100cd57806100c9915190634e487b7160e01b602083015260516024830152602482526100bf826102b8565b505f3660031901126100cd57806100c9915190634e487b7160e01b602083015260316024830152602482526100bf826102b8565b505f3660031901126100cd578051602081019181831067ffffffffffffffff8411176101a6576100c99281525f825251918291826102d4565b634e487b7160e01b5f52604160045260245ffd5b505f3660031901126100cd57806100c9915190634e487b7160e01b602083015260416024830152602482526100bf826102b8565b505f3660031901126100cd57806100c9915190634e487b7160e01b602083015260116024830152602482526100bf826102b8565b505f3660031901126100cd57806100c9915190634e487b7160e01b602083015260216024830152602482526100bf826102b8565b505f3660031901126100cd57806100c9915190634e487b7160e01b602083015260016024830152602482526100bf826102b8565b90505f3660031901126100cd576100c991634e487b7160e01b602083015260326024830152602482526100bf825b6060810190811067ffffffffffffffff8211176101a657604052565b602080825282518183018190529093925f5b82811061030757505060409293505f838284010152601f8019910116010190565b8181018601518482016040015285016102e656fea26469706673582212209e876bb006ca6addfaaacc6e96e420c2adbcf541b7c75038fa3bdb4f336380fc64736f6c63430008180033","linkReferences":{}},"methodIdentifiers":{"arithmeticError()":"8995290f","assertionError()":"10332977","divisionError()":"fa784a44","encodeStorageError()":"d160e4de","enumConversionError()":"1de45560","indexOOBError()":"05ee8612","lowLevelError()":"ac3d92c6","memOverflowError()":"986c5f68","popError()":"b22dc54d","zeroVarError()":"b67689da"},"id":22}