{"abi":[{"type":"function","name":"bytesToBytes32","inputs":[{"name":"b","type":"bytes","internalType":"bytes"},{"name":"offset","type":"uint256","internalType":"uint256"}],"outputs":[{"name":"","type":"bytes32","internalType":"bytes32"}],"stateMutability":"pure"},{"type":"event","name":"SlotFound","inputs":[{"name":"who","type":"address","indexed":false,"internalType":"address"},{"name":"fsig","type":"bytes4","indexed":false,"internalType":"bytes4"},{"name":"keysHash","type":"bytes32","indexed":false,"internalType":"bytes32"},{"name":"slot","type":"uint256","indexed":false,"internalType":"uint256"}],"anonymous":false},{"type":"event","name":"WARNING_UninitedSlot","inputs":[{"name":"who","type":"address","indexed":false,"internalType":"address"},{"name":"slot","type":"uint256","indexed":false,"internalType":"uint256"}],"anonymous":false}],"bytecode":{"object":"0x6080806040523461001a5761019d908161001f823930815050f35b5f80fdfe608060049081361015610010575f80fd5b5f3560e01c635358493914610023575f80fd5b60403660031901126101515781359167ffffffffffffffff908184116101515736602385011215610151578381013560249280821161015557601f8201601f19908116603f0116850190811185821017610155576040528084526020943684838301011161015157815f928588930183880137850101528135905f9380518681115f1461014757508591909392935b5f945b8386106100c6578787604051908152f35b9091929394958682018083116101355783518110156101235783018801516001600160f81b031916600388901b881560088a8304141715610111571c179560010194939291906100b5565b87601187634e487b7160e01b5f52525ffd5b86603286634e487b7160e01b5f52525ffd5b86601186634e487b7160e01b5f52525ffd5b91909392936100b2565b5f80fd5b83604184634e487b7160e01b5f52525ffdfea2646970667358221220fec84a3f3e4aaa4c523c9f3cbe0532df57069757fc8f232b72dd21399416c5d264736f6c63430008180033","linkReferences":{}},"methodIdentifiers":{"bytesToBytes32(bytes,uint256)":"53584939"},"id":22}