{"abi":[{"type":"constructor","inputs":[{"name":"admin","type":"address","internalType":"address"}],"stateMutability":"nonpayable"},{"type":"function","name":"DEFAULT_ADMIN_ROLE","inputs":[],"outputs":[{"name":"","type":"bytes32","internalType":"bytes32"}],"stateMutability":"view"},{"type":"function","name":"PAUSER_ROLE","inputs":[],"outputs":[{"name":"","type":"bytes32","internalType":"bytes32"}],"stateMutability":"view"},{"type":"function","name":"REPUTATION_WRITER_ROLE","inputs":[],"outputs":[{"name":"","type":"bytes32","internalType":"bytes32"}],"stateMutability":"view"},{"type":"function","name":"applyJobResult","inputs":[{"name":"agent","type":"address","internalType":"address"},{"name":"employer","type":"address","internalType":"address"},{"name":"success","type":"bool","internalType":"bool"},{"name":"agentPayout","type":"uint256","internalType":"uint256"},{"name":"employerSpend","type":"uint256","internalType":"uint256"}],"outputs":[],"stateMutability":"nonpayable"},{"type":"function","name":"applyValidationResult","inputs":[{"name":"validator","type":"address","internalType":"address"},{"name":"correct","type":"bool","internalType":"bool"},{"name":"reward","type":"uint256","internalType":"uint256"}],"outputs":[],"stateMutability":"nonpayable"},{"type":"function","name":"getRoleAdmin","inputs":[{"name":"role","type":"bytes32","internalType":"bytes32"}],"outputs":[{"name":"","type":"bytes32","internalType":"bytes32"}],"stateMutability":"view"},{"type":"function","name":"grantRole","inputs":[{"name":"role","type":"bytes32","internalType":"bytes32"},{"name":"account","type":"address","internalType":"address"}],"outputs":[],"stateMutability":"nonpayable"},{"type":"function","name":"hasRole","inputs":[{"name":"role","type":"bytes32","internalType":"bytes32"},{"name":"account","type":"address","internalType":"address"}],"outputs":[{"name":"","type":"bool","internalType":"bool"}],"stateMutability":"view"},{"type":"function","name":"pause","inputs":[],"outputs":[],"stateMutability":"nonpayable"},{"type":"function","name":"paused","inputs":[],"outputs":[{"name":"","type":"bool","internalType":"bool"}],"stateMutability":"view"},{"type":"function","name":"profileOf","inputs":[{"name":"wallet","type":"address","internalType":"address"}],"outputs":[{"name":"","type":"tuple","internalType":"struct AgentIdentityRegistry.AgentProfile","components":[{"name":"wallet","type":"address","internalType":"address"},{"name":"metadataURI","type":"string","internalType":"string"},{"name":"capabilitiesRoot","type":"bytes32","internalType":"bytes32"},{"name":"credentialsRoot","type":"bytes32","internalType":"bytes32"},{"name":"isValidator","type":"bool","internalType":"bool"},{"name":"exists","type":"bool","internalType":"bool"},{"name":"reputation","type":"tuple","internalType":"struct AgentIdentityRegistry.Reputation","components":[{"name":"scoreBps","type":"uint256","internalType":"uint256"},{"name":"completedJobs","type":"uint64","internalType":"uint64"},{"name":"failedJobs","type":"uint64","internalType":"uint64"},{"name":"validations","type":"uint64","internalType":"uint64"},{"name":"validationFailures","type":"uint64","internalType":"uint64"},{"name":"totalEarned","type":"uint256","internalType":"uint256"},{"name":"totalPaid","type":"uint256","internalType":"uint256"},{"name":"updatedAt","type":"uint64","internalType":"uint64"}]}]}],"stateMutability":"view"},{"type":"function","name":"registerAgent","inputs":[{"name":"metadataURI","type":"string","internalType":"string"},{"name":"capabilitiesRoot","type":"bytes32","internalType":"bytes32"},{"name":"credentialsRoot","type":"bytes32","internalType":"bytes32"}],"outputs":[],"stateMutability":"nonpayable"},{"type":"function","name":"renounceRole","inputs":[{"name":"role","type":"bytes32","internalType":"bytes32"},{"name":"callerConfirmation","type":"address","internalType":"address"}],"outputs":[],"stateMutability":"nonpayable"},{"type":"function","name":"reputationOf","inputs":[{"name":"wallet","type":"address","internalType":"address"}],"outputs":[{"name":"","type":"tuple","internalType":"struct AgentIdentityRegistry.Reputation","components":[{"name":"scoreBps","type":"uint256","internalType":"uint256"},{"name":"completedJobs","type":"uint64","internalType":"uint64"},{"name":"failedJobs","type":"uint64","internalType":"uint64"},{"name":"validations","type":"uint64","internalType":"uint64"},{"name":"validationFailures","type":"uint64","internalType":"uint64"},{"name":"totalEarned","type":"uint256","internalType":"uint256"},{"name":"totalPaid","type":"uint256","internalType":"uint256"},{"name":"updatedAt","type":"uint64","internalType":"uint64"}]}],"stateMutability":"view"},{"type":"function","name":"revokeRole","inputs":[{"name":"role","type":"bytes32","internalType":"bytes32"},{"name":"account","type":"address","internalType":"address"}],"outputs":[],"stateMutability":"nonpayable"},{"type":"function","name":"setValidator","inputs":[{"name":"wallet","type":"address","internalType":"address"},{"name":"isValidator","type":"bool","internalType":"bool"}],"outputs":[],"stateMutability":"nonpayable"},{"type":"function","name":"supportsInterface","inputs":[{"name":"interfaceId","type":"bytes4","internalType":"bytes4"}],"outputs":[{"name":"","type":"bool","internalType":"bool"}],"stateMutability":"view"},{"type":"function","name":"unpause","inputs":[],"outputs":[],"stateMutability":"nonpayable"},{"type":"function","name":"updateMetadata","inputs":[{"name":"metadataURI","type":"string","internalType":"string"},{"name":"capabilitiesRoot","type":"bytes32","internalType":"bytes32"},{"name":"credentialsRoot","type":"bytes32","internalType":"bytes32"}],"outputs":[],"stateMutability":"nonpayable"},{"type":"event","name":"AgentMetadataUpdated","inputs":[{"name":"wallet","type":"address","indexed":true,"internalType":"address"},{"name":"metadataURI","type":"string","indexed":false,"internalType":"string"},{"name":"capabilitiesRoot","type":"bytes32","indexed":false,"internalType":"bytes32"},{"name":"credentialsRoot","type":"bytes32","indexed":false,"internalType":"bytes32"}],"anonymous":false},{"type":"event","name":"AgentRegistered","inputs":[{"name":"wallet","type":"address","indexed":true,"internalType":"address"},{"name":"metadataURI","type":"string","indexed":false,"internalType":"string"},{"name":"capabilitiesRoot","type":"bytes32","indexed":false,"internalType":"bytes32"},{"name":"credentialsRoot","type":"bytes32","indexed":false,"internalType":"bytes32"}],"anonymous":false},{"type":"event","name":"Paused","inputs":[{"name":"account","type":"address","indexed":false,"internalType":"address"}],"anonymous":false},{"type":"event","name":"ReputationUpdated","inputs":[{"name":"wallet","type":"address","indexed":true,"internalType":"address"},{"name":"scoreBps","type":"uint256","indexed":false,"internalType":"uint256"},{"name":"completedJobs","type":"uint64","indexed":false,"internalType":"uint64"},{"name":"failedJobs","type":"uint64","indexed":false,"internalType":"uint64"},{"name":"validations","type":"uint64","indexed":false,"internalType":"uint64"},{"name":"validationFailures","type":"uint64","indexed":false,"internalType":"uint64"},{"name":"totalEarned","type":"uint256","indexed":false,"internalType":"uint256"},{"name":"totalPaid","type":"uint256","indexed":false,"internalType":"uint256"}],"anonymous":false},{"type":"event","name":"RoleAdminChanged","inputs":[{"name":"role","type":"bytes32","indexed":true,"internalType":"bytes32"},{"name":"previousAdminRole","type":"bytes32","indexed":true,"internalType":"bytes32"},{"name":"newAdminRole","type":"bytes32","indexed":true,"internalType":"bytes32"}],"anonymous":false},{"type":"event","name":"RoleGranted","inputs":[{"name":"role","type":"bytes32","indexed":true,"internalType":"bytes32"},{"name":"account","type":"address","indexed":true,"internalType":"address"},{"name":"sender","type":"address","indexed":true,"internalType":"address"}],"anonymous":false},{"type":"event","name":"RoleRevoked","inputs":[{"name":"role","type":"bytes32","indexed":true,"internalType":"bytes32"},{"name":"account","type":"address","indexed":true,"internalType":"address"},{"name":"sender","type":"address","indexed":true,"internalType":"address"}],"anonymous":false},{"type":"event","name":"Unpaused","inputs":[{"name":"account","type":"address","indexed":false,"internalType":"address"}],"anonymous":false},{"type":"event","name":"ValidatorDesignationUpdated","inputs":[{"name":"wallet","type":"address","indexed":true,"internalType":"address"},{"name":"isValidator","type":"bool","indexed":false,"internalType":"bool"}],"anonymous":false},{"type":"error","name":"AccessControlBadConfirmation","inputs":[]},{"type":"error","name":"AccessControlUnauthorizedAccount","inputs":[{"name":"account","type":"address","internalType":"address"},{"name":"neededRole","type":"bytes32","internalType":"bytes32"}]},{"type":"error","name":"AgentAlreadyRegistered","inputs":[]},{"type":"error","name":"AgentNotRegistered","inputs":[]},{"type":"error","name":"EnforcedPause","inputs":[]},{"type":"error","name":"ExpectedPause","inputs":[]},{"type":"error","name":"UnauthorizedAgentUpdate","inputs":[]}],"bytecode":{"object":"0x6080346200008857601f6200179b38819003918201601f19168301916001600160401b038311848410176200008c578084926020946040528339810103126200008857516001600160a01b0381168103620000885780620000646200007792620000a0565b50620000708162000110565b50620001b0565b5060405161151090816200024b8239f35b5f80fd5b634e487b7160e01b5f52604160045260245ffd5b6001600160a01b03165f8181525f805160206200177b833981519152602052604090205460ff166200010b575f8181525f805160206200177b83398151915260205260408120805460ff191660011790553391905f805160206200175b8339815191528180a4600190565b505f90565b6001600160a01b03165f8181527ff7c9542c591017a21c74b6f3fab6263c7952fc0aaf9db4c22a2a04ddc7f8674f60205260409020547f65d7a28e3265b37a6474929f336521b332c1681b933f6cb9f3376673440d862a919060ff16620001aa57815f525f60205260405f20815f5260205260405f20600160ff1982541617905533915f805160206200175b8339815191525f80a4600190565b50505f90565b6001600160a01b03165f8181527f98a051d569d591bc9831116c44f157124886755417625e457e7aa9c570ac317e60205260409020547f1c2f8c140e0a2ddebf2f0a25f7fe136986df77a7bd7484be8237ddf05a52b9e6919060ff16620001aa57815f525f60205260405f20815f5260205260405f20600160ff1982541617905533915f805160206200175b8339815191525f80a460019056fe6080806040526004361015610012575f80fd5b5f3560e01c90816301ffc9a714610e7d5750806316c63dd514610e435780631c05ca4a14610c37578063248a9ca314610c0b5780632f2ff15d14610bcf5780632f8eb9cb146109b757806336568abe146109705780633772a61b146107b95780633f4ba83a146107505780634623c91d146106525780635c975abb1461063057806368f142d6146104d15780638456cb591461047957806391d1485414610431578063949d9a78146101d5578063a217fddf146101bb578063d547741f1461017d578063db89c0441461012b5763e63ab1e9146100ed575f80fd5b34610127575f3660031901126101275760206040517f65d7a28e3265b37a6474929f336521b332c1681b933f6cb9f3376673440d862a8152f35b5f80fd5b3461012757602036600319011261012757610144610f37565b61014c61105e565b5060018060a01b03165f52600260205261010061016e600560405f200161109a565b61017b6040518092610f4d565bf35b34610127576040366003190112610127576101b960043561019c610f21565b90805f525f6020526101b4600160405f20015461126d565b61130a565b005b34610127575f3660031901126101275760206040515f8152f35b346101275760a0366003190112610127576101ee610f37565b6101f6610f21565b6044351515604435036101275761020b611212565b6102148261137c565b6001600160a01b0382165f9081526002602052604090207fc9a747f4e648917162adc69620540fefc1df546ec21d5a9e8d19374dacd45b6560058201604435156103ef576006830180546001600160401b03610271818316611102565b16906001600160401b0319161790555b6007830194610293606435875461112e565b80965561030f60068501546001600160401b03978882169660088360c01c916102d18c8b85604435928c5492818b60801c16918b60401c16906113bf565b809855600981018c42166001600160401b031982541617905501549260405196879660018060a01b0316998c808460801c169360401c16918861113b565b0390a26001600160a01b03165f81815260026020526040902060048101549192909160081c60ff1661033d57005b816103e260057fc9a747f4e648917162adc69620540fefc1df546ec21d5a9e8d19374dacd45b6594016008830190610378608435835461112e565b80925561039d61039882546044355f146103e75760ff60195b169061112e565b6114c7565b809155600984018542166001600160401b031982541617905560076006850154940154906040519585879660c01c92828260801c1692808360401c169216908861113b565b0390a2005b60ff5f610391565b60068301805467ffffffffffffffff60401b6104166001600160401b038360401c16611102565b60401b169067ffffffffffffffff60401b1916179055610281565b346101275760403660031901126101275761044a610f21565b6004355f525f60205260405f209060018060a01b03165f52602052602060ff60405f2054166040519015158152f35b34610127575f36600319011261012757610491611199565b61049961117b565b600160ff19815416176001557f62e78cea01bee320cd4e420270b5ea74000d11b0c9f74754ebdbfc544b05a2586020604051338152a1005b34610127576060366003190112610127576104ea610f37565b7fc9a747f4e648917162adc69620540fefc1df546ec21d5a9e8d19374dacd45b65610513610fab565b9161051c611212565b6105258161137c565b60018060a01b031691825f52600260205260405f20906103e26105ce600584019260068501908154956001600160401b03966001600160401b0360801b610570898360801c16611102565b60801b16806001600160401b0360801b1983161780865584156105f6575b505050600860078201936105a5604435865461112e565b809555549188831698808460401c169687958b8b848860801c16809860c01c998a9254936113bf565b809955600982019042166001600160401b03198254161790550154936040519788978861113b565b6fffffffffffffffffffffffffffffffff906001600160c01b03199061061e9060c01c611102565b60c01b1692161717835589808061058e565b34610127575f36600319011261012757602060ff600154166040519015158152f35b346101275760403660031901126101275761066b610f37565b610673610fab565b335f9081527fad3228b676f7d3cd4284a5443f17f1962b36e491b30a40b2405849e597ba5fb5602052604090205490919060ff1615610732576001600160a01b03165f8181526002602052604090206004015490919060081c60ff16156107205760207f145d1625329bbd4220db147feab84677bd373df9485b69f78187175dafc81af291835f5260028252600460405f20019015159060ff1981541660ff8316179055604051908152a2005b6040516383bcfb4760e01b8152600490fd5b60405163e2517d3f60e01b81523360048201525f6024820152604490fd5b34610127575f36600319011261012757610768611199565b60015460ff8116156107a75760ff19166001557f5db9ee0a495bf2e6ff9c91a7834c1ba4fdd244a5e8aa4e537bd38aeae4b073aa6020604051338152a1005b604051638dfc202b60e01b8152600490fd5b34610127576107c736610ed0565b92916107d161117b565b335f526020936002855260405f2060ff600482015460081c161561072057600195868201906001600160401b03851161095c5761080e8254610fba565b601f8111610916575b505f90601f861160011461088c575083926103e2949286807f28bfb16c7b5714a6fb59915c9ca7f6db8128dd233693a6e4a92664eb8c702f019a9b6003955f93610881575b501b905f1989861b1c19161790555b8660028201550155604051938493339785610ff2565b8d013592508d61085c565b90601f198616835f52825f20925f905b8282106108ff575050927f28bfb16c7b5714a6fb59915c9ca7f6db8128dd233693a6e4a92664eb8c702f019899600393879693896103e29997106108e8575b505087811b01905561086b565b8c01355f198a871b60f8161c191690558b806108db565b808c85968294968e0135815501950193019061089c565b825f52815f20601f870160051c810191838810610952575b601f0160051c019089905b828110610947575050610817565b5f8155018990610939565b909150819061092e565b634e487b7160e01b5f52604160045260245ffd5b3461012757604036600319011261012757610989610f21565b336001600160a01b038216036109a5576101b99060043561130a565b60405163334bd91960e11b8152600490fd5b3461012757602080600319360112610127576109d1610f37565b6040516109dd81611027565b5f81526060838201525f60408201525f60608201525f60808201525f60a082015260c0610a0861105e565b91015260018060a01b038091165f526002825260405f209060405192610a2d84611027565b818354168452600191600184016040519384915f91815491610a4e83610fba565b92838652876001821691825f14610bb1575050600114610b75575b505050601f801995869203011681018181106001600160401b0382111761095c5760409694939296528184019081526002850154946040850195865260038101549060608601918252600481015491610adf6005608089019360ff86161515855260ff60a08b019660081c16151586520161109a565b9360c08801948552604051998a98878a5251168689015251946101c06040890152855195866101e08a01525f5b878110610b5b5750505091601f949391610b5293610200995f8b888c0101525160608a015251608089015251151560a088015251151560c08701525160e0860190610f4d565b01168101030190f35b81810183015199810161020001999099528a988201610b0c565b8693505f92919252825f20915f925b828410610b9957505050820101878080610a69565b8054848a018601528895508794909301928101610b84565b93509450505060ff191682840152151560051b820101878080610a69565b34610127576040366003190112610127576101b9600435610bee610f21565b90805f525f602052610c06600160405f20015461126d565b61128e565b34610127576020366003190112610127576004355f525f6020526020600160405f200154604051908152f35b3461012757610c4536610ed0565b9291610c4f61117b565b335f526020936002855260ff600460405f20015460081c16610e3157335f526002855260405f20336bffffffffffffffffffffffff60a01b82541617815560018091016001600160401b039182851161095c57610cac8254610fba565b601f8111610deb575b505f601f8611600114610d6357976103e294939286806002947fb0220962471ee282062441072c7cfe086a5bced7b730c2dbedd11b0e2d462a999b9c5f93610d58575b501b905f198960031b1c19161790555b335f5252600960405f208660028201558360038201556004810161010061ff00198254161790556113886005820155019042166001600160401b0319825416179055604051938493339785610ff2565b8d013592508d610cf8565b601f19861690835f52895f20915f5b818110610dd65750927fb0220962471ee282062441072c7cfe086a5bced7b730c2dbedd11b0e2d462a99999a926103e2979695928960029610610dbd575b505087811b019055610d08565b8c01355f1960038b901b60f8161c191690558b80610db0565b8a830135845592840192918b01918b01610d72565b825f52885f20601f870160051c8101918a8810610e27575b601f0160051c019082905b828110610e1c575050610cb5565b5f8155018290610e0e565b9091508190610e03565b60405163704c69f760e11b8152600490fd5b34610127575f3660031901126101275760206040517f1c2f8c140e0a2ddebf2f0a25f7fe136986df77a7bd7484be8237ddf05a52b9e68152f35b34610127576020366003190112610127576004359063ffffffff60e01b821680920361012757602091637965db0b60e01b8114908115610ebf575b5015158152f35b6301ffc9a760e01b14905083610eb8565b906060600319830112610127576004356001600160401b0392838211610127578060238301121561012757816004013593841161012757602484830101116101275760240191906024359060443590565b602435906001600160a01b038216820361012757565b600435906001600160a01b038216820361012757565b60e09080518352816020820151916001600160401b03809316602086015282604082015116604086015282606082015116606086015282608082015116608086015260a081015160a086015260c081015160c0860152015116910152565b60243590811515820361012757565b90600182811c92168015610fe8575b6020831014610fd457565b634e487b7160e01b5f52602260045260245ffd5b91607f1691610fc9565b90826040936080929796959760608552816060860152838501375f828285010152601f80199101168201019460208201520152565b60e081019081106001600160401b0382111761095c57604052565b61010081019081106001600160401b0382111761095c57604052565b6040519061106b82611042565b5f60e0838281528260208201528260408201528260608201528260808201528260a08201528260c08201520152565b906040516110a781611042565b60e081938054835260046001820154916001600160401b03928381166020870152838160401c166040870152838160801c16606087015260c01c6080860152600281015460a0860152600381015460c0860152015416910152565b9060016001600160401b038093160191821161111a57565b634e487b7160e01b5f52601160045260245ffd5b9190820180921161111a57565b939160c09591989796939260e086019986526001600160401b03809481809416602089015216604087015216606085015216608083015260a08201520152565b60ff6001541661118757565b60405163d93c066560e01b8152600490fd5b335f9081527ff7c9542c591017a21c74b6f3fab6263c7952fc0aaf9db4c22a2a04ddc7f8674f60205260409020547f65d7a28e3265b37a6474929f336521b332c1681b933f6cb9f3376673440d862a9060ff16156111f45750565b6044906040519063e2517d3f60e01b82523360048301526024820152fd5b335f9081527f98a051d569d591bc9831116c44f157124886755417625e457e7aa9c570ac317e60205260409020547f1c2f8c140e0a2ddebf2f0a25f7fe136986df77a7bd7484be8237ddf05a52b9e69060ff16156111f45750565b805f525f60205260405f20335f5260205260ff60405f205416156111f45750565b90815f525f60205260405f209060018060a01b031690815f5260205260ff60405f205416155f1461130457815f525f60205260405f20815f5260205260405f20600160ff1982541617905533917f2f8788117e7eff1d82e926ec794901d17c78024a50270940304540a733656f0d5f80a4600190565b50505f90565b90815f525f60205260405f209060018060a01b031690815f5260205260ff60405f2054165f1461130457815f525f60205260405f20815f5260205260405f2060ff19815416905533917ff6391f5c32d9c69d2a47ea670b442974b53935d1edc7fd64eb21e047a839171b5f80a4600190565b6001600160a01b03165f9081526002602052604090206004015460081c60ff161561072057565b906127106001600160401b038093160291821691820361111a57565b93929091936001600160401b03809316838216019083821161111a578391821690816114b557505083945b1690816114975750505080915b831561148e5760ff60505b169260418202918083046041149015171561111a5760148102908082046014149015171561111a576114339161112e565b600f820291808304600f149015171561111a576064916114529161112e565b04911561146957610398906114669261112e565b90565b8082111561148357810390811161111a57611466906114c7565b50506114665f6114c7565b60ff60a0611402565b8216810382811161111a576114ac83916113a3565b160416916113f7565b6114bf83916113a3565b1604946113ea565b6127108082116114d5575090565b90509056fea26469706673582212202c51fa603148c75f4782806da98c8165202db18de11ae9cb625cc0e57feb3ced64736f6c634300081800332f8788117e7eff1d82e926ec794901d17c78024a50270940304540a733656f0dad3228b676f7d3cd4284a5443f17f1962b36e491b30a40b2405849e597ba5fb5","linkReferences":{}},"methodIdentifiers":{"DEFAULT_ADMIN_ROLE()":"a217fddf","PAUSER_ROLE()":"e63ab1e9","REPUTATION_WRITER_ROLE()":"16c63dd5","applyJobResult(address,address,bool,uint256,uint256)":"949d9a78","applyValidationResult(address,bool,uint256)":"68f142d6","getRoleAdmin(bytes32)":"248a9ca3","grantRole(bytes32,address)":"2f2ff15d","hasRole(bytes32,address)":"91d14854","pause()":"8456cb59","paused()":"5c975abb","profileOf(address)":"2f8eb9cb","registerAgent(string,bytes32,bytes32)":"1c05ca4a","renounceRole(bytes32,address)":"36568abe","reputationOf(address)":"db89c044","revokeRole(bytes32,address)":"d547741f","setValidator(address,bool)":"4623c91d","supportsInterface(bytes4)":"01ffc9a7","unpause()":"3f4ba83a","updateMetadata(string,bytes32,bytes32)":"3772a61b"},"id":2}