{"abi":[{"type":"constructor","inputs":[{"name":"usdc_","type":"address","internalType":"contract IERC20"},{"name":"registry_","type":"address","internalType":"contract AgentIdentityRegistry"},{"name":"admin","type":"address","internalType":"address"},{"name":"feeRecipient_","type":"address","internalType":"address"}],"stateMutability":"nonpayable"},{"type":"function","name":"BPS","inputs":[],"outputs":[{"name":"","type":"uint256","internalType":"uint256"}],"stateMutability":"view"},{"type":"function","name":"DEFAULT_ADMIN_ROLE","inputs":[],"outputs":[{"name":"","type":"bytes32","internalType":"bytes32"}],"stateMutability":"view"},{"type":"function","name":"PAUSER_ROLE","inputs":[],"outputs":[{"name":"","type":"bytes32","internalType":"bytes32"}],"stateMutability":"view"},{"type":"function","name":"SETTLEMENT_ROLE","inputs":[],"outputs":[{"name":"","type":"bytes32","internalType":"bytes32"}],"stateMutability":"view"},{"type":"function","name":"acceptJob","inputs":[{"name":"jobId","type":"uint256","internalType":"uint256"},{"name":"validator","type":"address","internalType":"address"}],"outputs":[],"stateMutability":"nonpayable"},{"type":"function","name":"cancelJob","inputs":[{"name":"jobId","type":"uint256","internalType":"uint256"}],"outputs":[],"stateMutability":"nonpayable"},{"type":"function","name":"createJob","inputs":[{"name":"rewardAmount","type":"uint256","internalType":"uint256"},{"name":"deadline","type":"uint64","internalType":"uint64"},{"name":"metadataURI","type":"string","internalType":"string"},{"name":"protocolFeeBps","type":"uint256","internalType":"uint256"},{"name":"validatorRewardBps","type":"uint256","internalType":"uint256"}],"outputs":[{"name":"jobId","type":"uint256","internalType":"uint256"}],"stateMutability":"nonpayable"},{"type":"function","name":"disputeJob","inputs":[{"name":"jobId","type":"uint256","internalType":"uint256"},{"name":"reason","type":"string","internalType":"string"}],"outputs":[],"stateMutability":"nonpayable"},{"type":"function","name":"feeRecipient","inputs":[],"outputs":[{"name":"","type":"address","internalType":"address"}],"stateMutability":"view"},{"type":"function","name":"fundEscrow","inputs":[{"name":"jobId","type":"uint256","internalType":"uint256"},{"name":"amount","type":"uint256","internalType":"uint256"}],"outputs":[],"stateMutability":"nonpayable"},{"type":"function","name":"getRoleAdmin","inputs":[{"name":"role","type":"bytes32","internalType":"bytes32"}],"outputs":[{"name":"","type":"bytes32","internalType":"bytes32"}],"stateMutability":"view"},{"type":"function","name":"grantRole","inputs":[{"name":"role","type":"bytes32","internalType":"bytes32"},{"name":"account","type":"address","internalType":"address"}],"outputs":[],"stateMutability":"nonpayable"},{"type":"function","name":"hasRole","inputs":[{"name":"role","type":"bytes32","internalType":"bytes32"},{"name":"account","type":"address","internalType":"address"}],"outputs":[{"name":"","type":"bool","internalType":"bool"}],"stateMutability":"view"},{"type":"function","name":"jobs","inputs":[{"name":"","type":"uint256","internalType":"uint256"}],"outputs":[{"name":"employer","type":"address","internalType":"address"},{"name":"agent","type":"address","internalType":"address"},{"name":"validator","type":"address","internalType":"address"},{"name":"rewardAmount","type":"uint256","internalType":"uint256"},{"name":"escrowBalance","type":"uint256","internalType":"uint256"},{"name":"protocolFeeBps","type":"uint256","internalType":"uint256"},{"name":"validatorRewardBps","type":"uint256","internalType":"uint256"},{"name":"deadline","type":"uint64","internalType":"uint64"},{"name":"metadataURI","type":"string","internalType":"string"},{"name":"deliverableHash","type":"bytes32","internalType":"bytes32"},{"name":"validationResult","type":"bool","internalType":"bool"},{"name":"state","type":"uint8","internalType":"enum JobLifecycle.JobState"},{"name":"createdAt","type":"uint64","internalType":"uint64"},{"name":"updatedAt","type":"uint64","internalType":"uint64"}],"stateMutability":"view"},{"type":"function","name":"nextJobId","inputs":[],"outputs":[{"name":"","type":"uint256","internalType":"uint256"}],"stateMutability":"view"},{"type":"function","name":"pause","inputs":[],"outputs":[],"stateMutability":"nonpayable"},{"type":"function","name":"paused","inputs":[],"outputs":[{"name":"","type":"bool","internalType":"bool"}],"stateMutability":"view"},{"type":"function","name":"registry","inputs":[],"outputs":[{"name":"","type":"address","internalType":"contract AgentIdentityRegistry"}],"stateMutability":"view"},{"type":"function","name":"releasePayment","inputs":[{"name":"jobId","type":"uint256","internalType":"uint256"}],"outputs":[],"stateMutability":"nonpayable"},{"type":"function","name":"renounceRole","inputs":[{"name":"role","type":"bytes32","internalType":"bytes32"},{"name":"callerConfirmation","type":"address","internalType":"address"}],"outputs":[],"stateMutability":"nonpayable"},{"type":"function","name":"revokeRole","inputs":[{"name":"role","type":"bytes32","internalType":"bytes32"},{"name":"account","type":"address","internalType":"address"}],"outputs":[],"stateMutability":"nonpayable"},{"type":"function","name":"setFeeRecipient","inputs":[{"name":"recipient","type":"address","internalType":"address"}],"outputs":[],"stateMutability":"nonpayable"},{"type":"function","name":"startValidation","inputs":[{"name":"jobId","type":"uint256","internalType":"uint256"}],"outputs":[],"stateMutability":"nonpayable"},{"type":"function","name":"submitDeliverable","inputs":[{"name":"jobId","type":"uint256","internalType":"uint256"},{"name":"deliverableHash","type":"bytes32","internalType":"bytes32"}],"outputs":[],"stateMutability":"nonpayable"},{"type":"function","name":"supportsInterface","inputs":[{"name":"interfaceId","type":"bytes4","internalType":"bytes4"}],"outputs":[{"name":"","type":"bool","internalType":"bool"}],"stateMutability":"view"},{"type":"function","name":"unpause","inputs":[],"outputs":[],"stateMutability":"nonpayable"},{"type":"function","name":"usdc","inputs":[],"outputs":[{"name":"","type":"address","internalType":"contract IERC20"}],"stateMutability":"view"},{"type":"function","name":"validateJob","inputs":[{"name":"jobId","type":"uint256","internalType":"uint256"},{"name":"passed","type":"bool","internalType":"bool"},{"name":"evidenceHash","type":"bytes32","internalType":"bytes32"}],"outputs":[],"stateMutability":"nonpayable"},{"type":"event","name":"DeliverableSubmitted","inputs":[{"name":"jobId","type":"uint256","indexed":true,"internalType":"uint256"},{"name":"agent","type":"address","indexed":true,"internalType":"address"},{"name":"deliverableHash","type":"bytes32","indexed":false,"internalType":"bytes32"}],"anonymous":false},{"type":"event","name":"EscrowFunded","inputs":[{"name":"jobId","type":"uint256","indexed":true,"internalType":"uint256"},{"name":"payer","type":"address","indexed":true,"internalType":"address"},{"name":"amount","type":"uint256","indexed":false,"internalType":"uint256"},{"name":"escrowBalance","type":"uint256","indexed":false,"internalType":"uint256"}],"anonymous":false},{"type":"event","name":"JobAssigned","inputs":[{"name":"jobId","type":"uint256","indexed":true,"internalType":"uint256"},{"name":"agent","type":"address","indexed":true,"internalType":"address"},{"name":"validator","type":"address","indexed":true,"internalType":"address"}],"anonymous":false},{"type":"event","name":"JobCancelled","inputs":[{"name":"jobId","type":"uint256","indexed":true,"internalType":"uint256"},{"name":"employer","type":"address","indexed":true,"internalType":"address"},{"name":"refund","type":"uint256","indexed":false,"internalType":"uint256"}],"anonymous":false},{"type":"event","name":"JobCreated","inputs":[{"name":"jobId","type":"uint256","indexed":true,"internalType":"uint256"},{"name":"employer","type":"address","indexed":true,"internalType":"address"},{"name":"rewardAmount","type":"uint256","indexed":false,"internalType":"uint256"},{"name":"deadline","type":"uint64","indexed":false,"internalType":"uint64"},{"name":"metadataURI","type":"string","indexed":false,"internalType":"string"}],"anonymous":false},{"type":"event","name":"JobDisputed","inputs":[{"name":"jobId","type":"uint256","indexed":true,"internalType":"uint256"},{"name":"actor","type":"address","indexed":true,"internalType":"address"},{"name":"reason","type":"string","indexed":false,"internalType":"string"}],"anonymous":false},{"type":"event","name":"JobValidated","inputs":[{"name":"jobId","type":"uint256","indexed":true,"internalType":"uint256"},{"name":"validator","type":"address","indexed":true,"internalType":"address"},{"name":"passed","type":"bool","indexed":false,"internalType":"bool"},{"name":"evidenceHash","type":"bytes32","indexed":false,"internalType":"bytes32"}],"anonymous":false},{"type":"event","name":"Paused","inputs":[{"name":"account","type":"address","indexed":false,"internalType":"address"}],"anonymous":false},{"type":"event","name":"PaymentReleased","inputs":[{"name":"jobId","type":"uint256","indexed":true,"internalType":"uint256"},{"name":"agent","type":"address","indexed":true,"internalType":"address"},{"name":"agentAmount","type":"uint256","indexed":false,"internalType":"uint256"},{"name":"validator","type":"address","indexed":true,"internalType":"address"},{"name":"validatorAmount","type":"uint256","indexed":false,"internalType":"uint256"},{"name":"fee","type":"uint256","indexed":false,"internalType":"uint256"}],"anonymous":false},{"type":"event","name":"RoleAdminChanged","inputs":[{"name":"role","type":"bytes32","indexed":true,"internalType":"bytes32"},{"name":"previousAdminRole","type":"bytes32","indexed":true,"internalType":"bytes32"},{"name":"newAdminRole","type":"bytes32","indexed":true,"internalType":"bytes32"}],"anonymous":false},{"type":"event","name":"RoleGranted","inputs":[{"name":"role","type":"bytes32","indexed":true,"internalType":"bytes32"},{"name":"account","type":"address","indexed":true,"internalType":"address"},{"name":"sender","type":"address","indexed":true,"internalType":"address"}],"anonymous":false},{"type":"event","name":"RoleRevoked","inputs":[{"name":"role","type":"bytes32","indexed":true,"internalType":"bytes32"},{"name":"account","type":"address","indexed":true,"internalType":"address"},{"name":"sender","type":"address","indexed":true,"internalType":"address"}],"anonymous":false},{"type":"event","name":"Unpaused","inputs":[{"name":"account","type":"address","indexed":false,"internalType":"address"}],"anonymous":false},{"type":"event","name":"ValidationStarted","inputs":[{"name":"jobId","type":"uint256","indexed":true,"internalType":"uint256"},{"name":"validator","type":"address","indexed":true,"internalType":"address"}],"anonymous":false},{"type":"error","name":"AccessControlBadConfirmation","inputs":[]},{"type":"error","name":"AccessControlUnauthorizedAccount","inputs":[{"name":"account","type":"address","internalType":"address"},{"name":"neededRole","type":"bytes32","internalType":"bytes32"}]},{"type":"error","name":"DeadlineExpired","inputs":[]},{"type":"error","name":"EnforcedPause","inputs":[]},{"type":"error","name":"ExpectedPause","inputs":[]},{"type":"error","name":"InvalidAmount","inputs":[]},{"type":"error","name":"InvalidDeadline","inputs":[]},{"type":"error","name":"InvalidState","inputs":[]},{"type":"error","name":"ReentrancyGuardReentrantCall","inputs":[]},{"type":"error","name":"SafeERC20FailedOperation","inputs":[{"name":"token","type":"address","internalType":"address"}]},{"type":"error","name":"Unauthorized","inputs":[]},{"type":"error","name":"ZeroAddress","inputs":[]}],"bytecode":{"object":"0x60c0346200019e57601f62001e2738819003918201601f19168301916001600160401b03831184841017620001a2578084926080946040528339810103126200019e578051906001600160a01b03808316908184036200019e57602083015190808216908183036200019e576200008760606200007f60408801620001b6565b9601620001b6565b9360017f9b779b17422d0df92223018b32b4d1fa46e071723d6817e2486d003becc55f005560016002551591821562000194575b50811562000188575b81156200017c575b506200016a576200011d9360805260a05260015490610100600160a81b039060081b1690610100600160a81b031916176001556200010a81620001cb565b5062000116816200023b565b50620002db565b50604051611a71908162000376823960805181818161068401528181610bc601528181610da601528181611830015281816119ab01526119eb015260a051818181610acb01526118570152f35b60405163d92e233d60e01b8152600490fd5b90508216155f620000cc565b848116159150620000c4565b1591505f620000bb565b5f80fd5b634e487b7160e01b5f52604160045260245ffd5b51906001600160a01b03821682036200019e57565b6001600160a01b03165f8181525f8051602062001e07833981519152602052604090205460ff1662000236575f8181525f8051602062001e0783398151915260205260408120805460ff191660011790553391905f8051602062001de78339815191528180a4600190565b505f90565b6001600160a01b03165f8181527ff7c9542c591017a21c74b6f3fab6263c7952fc0aaf9db4c22a2a04ddc7f8674f60205260409020547f65d7a28e3265b37a6474929f336521b332c1681b933f6cb9f3376673440d862a919060ff16620002d557815f525f60205260405f20815f5260205260405f20600160ff1982541617905533915f8051602062001de78339815191525f80a4600190565b50505f90565b6001600160a01b03165f8181527fdd53df7e4642f4e3d9dededdac02355f2e876e2a9b7ef4e260af8d6fd7b3325760205260409020547f300f9ae985dc711960f7a4d1dd013f9c19ecf40bff149522ab7523b2187a3846919060ff16620002d557815f525f60205260405f20815f5260205260405f20600160ff1982541617905533915f8051602062001de78339815191525f80a460019056fe6080806040526004361015610012575f80fd5b5f3560e01c90816301ffc9a7146113cd57508063141165b014610f9d578063180aedf314610ddb5780631dffa3dc14610cc0578063248a9ca314610c94578063249d39e914610c785780632f2ff15d14610c3c57806336568abe14610bf55780633e413bee14610bb15780633f4ba83a14610b485780634690484014610b1c5780635c975abb14610afa5780637b10399914610ab65780638456cb5914610a5e57806388685cd91461098057806391d1485414610938578063934b68b5146108825780639385342f146107e2578063a217fddf146107c8578063a2d53f9a14610625578063b0c2aa5e14610608578063b3120a27146104ef578063ba9cf01d146104b5578063d2e7ee6c146103aa578063d547741f1461036c578063d7d8672714610245578063e63ab1e91461020b5763e74b981b14610150575f80fd5b34610207576020366003190112610207576004356001600160a01b03811680820361020757335f9081527fad3228b676f7d3cd4284a5443f17f1962b36e491b30a40b2405849e597ba5fb5602052604090205460ff16156101e957156101d75760018054610100600160a81b03191660089290921b610100600160a81b0316919091179055005b60405163d92e233d60e01b8152600490fd5b60405163e2517d3f60e01b81523360048201525f6024820152604490fd5b5f80fd5b34610207575f3660031901126102075760206040517f65d7a28e3265b37a6474929f336521b332c1681b933f6cb9f3376673440d862a8152f35b34610207576040366003190112610207576004356102616114b9565b9061026a611527565b805f52600360205260405f2091600a830180549160ff8360081c16600881101561035857600103610346576001600160401b0390816007870154164211610334576001600160a01b0316948515801561032b575b6101d757610303938187600260016102009501926bffffffffffffffffffffffff60a01b933385825416179055019182541617905561ff0019161782554216906114dc565b33907f9241bbc81972619fd8837aa8347d6d10a3217ab27e59b9cc010681966ebbcdd75f80a4005b503386146102be565b604051631ab7da6b60e01b8152600490fd5b60405163baf3f0f760e01b8152600490fd5b634e487b7160e01b5f52602160045260245ffd5b34610207576040366003190112610207576103a860043561038b6114b9565b90805f525f6020526103a3600160405f20015461164d565b6116ea565b005b346102075760603660031901126102075760043560243580151591828203610207576103d4611527565b805f52600360205260405f2091600a83019360ff855460081c166008811015610358576004036103465760028401546001600160a01b031633036104a457845460ff191660ff831515161785556104346001600160401b034216866114dc565b6040519081526044356020820152827f5c8f58c0f73038b1c1b30611915a370abe6edc3a31270486d5e1edcdf54df47a60403393a31561049357610480925061047b611545565b61177c565b60015f80516020611a1c83398151915255005b5050805461ff001916610600179055005b6040516282b42960e81b8152600490fd5b34610207575f3660031901126102075760206040517f300f9ae985dc711960f7a4d1dd013f9c19ecf40bff149522ab7523b2187a38468152f35b34610207576040366003190112610207576001600160401b0360043560243582811161020757610523903690600401611420565b9261052c611527565b5f8381526003602052604090208054336001600160a01b03918216141590816105f6575b816105e5575b506104a457600a0191825460ff8160081c16600881101561035857600581149081156105da575b50610346577fb59122d87b9a129d9dbb8103c368a3de4e00b50a9fc86c22d48c74cca778e670936105d5936106006105bf9361ff0019161782554216906114dc565b6040519182916020835233966020840191611507565b0390a3005b60079150148761057d565b905060028201541633141586610556565b80915060018301541633141590610550565b34610207575f366003190112610207576020600254604051908152f35b3461020757604036600319011261020757602435600435610644611545565b61064c611527565b805f52600360205260405f20600a810160ff815460081c1660088110156103585780151590816107bc575b506103465783156107aa577f0000000000000000000000000000000000000000000000000000000000000000604051906323b872dd60e01b5f5233600452306024528560445260205f60648180855af160015f511481161561078b575b826040525f6060521561076d57505061071690600483019260036106f98786546114cf565b918286550154111561075b575b6001600160401b034216906114dc565b5460405192835260208301527fbc6351b0e2a6a3f646e25885e97f2d7aef98ed917cad825bbcbc26d30bd1f0fb60403393a360015f80516020611a1c83398151915255005b805461ff001916610100178155610706565b635274afe760e01b82526001600160a01b0316600482015260249150fd5b60018115166107a157813b15153d1516166106d4565b823d5f823e3d90fd5b60405163162908e360e11b8152600490fd5b60019150141585610677565b34610207575f3660031901126102075760206040515f8152f35b34610207576020366003190112610207576004356107fe611527565b805f52600360205260405f20600a810180549160ff8360081c1660088110156103585760030361034657600201546001600160a01b031633036104a45761040061085a9261ff0019161781556001600160401b034216906114dc565b33907fa04add543f42f01d8fedd7bad553b395dcea9e6a0980c14639b01d13baede6905f80a3005b34610207576040366003190112610207576024356004356108a1611527565b805f52600360205260405f20600a810180549160ff8360081c166008811015610358576002036103465760018101546001600160a01b031633036104a45784156107aa5761090a9285600961030093015561ff0019161781556001600160401b034216906114dc565b6040519182527f913fbf42ea4516a273976c8e01edc2b511221d6cd3dc4c0f2fdbbaf53d3b2c0b60203393a3005b34610207576040366003190112610207576109516114b9565b6004355f525f60205260405f209060018060a01b03165f52602052602060ff60405f2054166040519015158152f35b3461020757602036600319011261020757335f9081527fdd53df7e4642f4e3d9dededdac02355f2e876e2a9b7ef4e260af8d6fd7b332576020526040902054600435907f300f9ae985dc711960f7a4d1dd013f9c19ecf40bff149522ab7523b2187a38469060ff1615610a4057506109f6611527565b805f52600360205260405f20600a81015460ff8160081c1660088110156103585760041490811591610a34575b50610346576104809161047b611545565b60ff9150161583610a23565b6044906040519063e2517d3f60e01b82523360048301526024820152fd5b34610207575f36600319011261020757610a766115f2565b610a7e611527565b600160ff19815416176001557f62e78cea01bee320cd4e420270b5ea74000d11b0c9f74754ebdbfc544b05a2586020604051338152a1005b34610207575f366003190112610207576040517f00000000000000000000000000000000000000000000000000000000000000006001600160a01b03168152602090f35b34610207575f36600319011261020757602060ff600154166040519015158152f35b34610207575f3660031901126102075760015460405160089190911c6001600160a01b03168152602090f35b34610207575f36600319011261020757610b606115f2565b60015460ff811615610b9f5760ff19166001557f5db9ee0a495bf2e6ff9c91a7834c1ba4fdd244a5e8aa4e537bd38aeae4b073aa6020604051338152a1005b604051638dfc202b60e01b8152600490fd5b34610207575f366003190112610207576040517f00000000000000000000000000000000000000000000000000000000000000006001600160a01b03168152602090f35b3461020757604036600319011261020757610c0e6114b9565b336001600160a01b03821603610c2a576103a8906004356116ea565b60405163334bd91960e11b8152600490fd5b34610207576040366003190112610207576103a8600435610c5b6114b9565b90805f525f602052610c73600160405f20015461164d565b61166e565b34610207575f3660031901126102075760206040516127108152f35b34610207576020366003190112610207576004355f525f6020526020600160405f200154604051908152f35b3461020757602036600319011261020757600435610cdc611545565b610ce4611527565b5f81815260036020526040902080546001600160a01b03929190831633036104a457600a810180549360ff8560081c166008811015610358578015159081610dcf575b506103465782610d7960209361070060047fa80c76c474b34cc7af71dec63d733b959fff08f4eb0789e288be5db6b608f9429701985f8a549a5561ff0019161781556001600160401b034216906114dc565b85610d9c575b541693604051908152a360015f80516020611a1c83398151915255005b610dca86838354167f0000000000000000000000000000000000000000000000000000000000000000611574565b610d7f565b60019150141586610d27565b3461020757602080600319360112610207576004355f526003815260405f2060018060a01b039182825416600184600185015416946002850154169260038501549060048601549260058701549360068801546001600160401b03958660078b0154169260088b0160405180965f90835493610e568561144d565b948585528b6001821691825f14610f7b575050600114610f3f575b5050610e7f92500386611498565b600a60098c01549b01549660ff8860081c169a604080519e8f906101c09d82528a820152015260608d015260808c015260a08b015260c08a015260e089015284610100890152805180958901525f5b858110610f2a575050506101e0945f86858901015261012087015260ff811615156101408701526008841015610358578593610160850152818160101c1661018085015260501c166101a0830152601f80199101168101030190f35b8181018301518982016101e001528201610ece565b8a92505f52815f20905f915b858310610f63575050610e7f93508201018f80610e71565b8054838c018501528a94508b93909201918101610f4b565b9250935050610e7f94915060ff191682840152151560051b8201018f80610e71565b346102075760a0366003190112610207576024356001600160401b0381168103610207576044356001600160401b03811161020757610fe0903690600401611420565b610fe8611527565b600435156107aa57426001600160401b03841611156113bb576127106110126084356064356114cf565b10156107aa57600254915f1983146113a75760018301600255604051936101c085018581106001600160401b03821117611393576040523385525f60208601525f604086015260043560608601525f608086015260643560a086015260843560c08601526001600160401b03811660e08601526001600160401b038311611393576040516110aa601f8501601f191660200182611498565b838152368484011161020757838360208301375f602085830101526101008601525f6101208601525f6101408601525f6101608601526001600160401b0342166101808601526001600160401b0342166101a0860152835f52600360205260405f2060018060a01b03808751166bffffffffffffffffffffffff60a01b9081845416178355600183018260208a01511682825416179055600283019160408901511690825416179055606086015160038201556080860151600482015560a0860151600582015560c08601516006820155600781016001600160401b0360e0880151166001600160401b03198254161790556101008601518051906001600160401b038211611393576111c0600884015461144d565b601f811161134f575b50602090601f83116001146112e257600a9392915f91836112d7575b50508160011b915f199060031b1c19161760088201555b6101208701516009820155016112256101408701511515829060ff801983541691151516179055565b610160860151916008831015610358576112cc86946112a9846001600160401b036101a060209c7f54ad4bfa967e263393033d994b630c4169ca8b950ef79daa13e48516557d2ba99983995461ff0069ffffffffffffffff000061018085015160101b169260081b169069ffffffffffffffffff00191617178455015116906114dc565b604051938493600435855216898401526060604084015233966060840191611507565b0390a3604051908152f35b0151905089806111e5565b90601f19831691600885015f5260205f20925f5b8181106113375750916001939185600a9796941061131f575b505050811b0160088201556111fc565b01515f1960f88460031b161c1916905589808061130f565b929360206001819287860151815501950193016112f6565b600884015f5260205f20601f840160051c81016020851061138c575b601f830160051c820181106113815750506111c9565b5f815560010161136b565b508061136b565b634e487b7160e01b5f52604160045260245ffd5b634e487b7160e01b5f52601160045260245ffd5b604051631da7447960e21b8152600490fd5b34610207576020366003190112610207576004359063ffffffff60e01b821680920361020757602091637965db0b60e01b811490811561140f575b5015158152f35b6301ffc9a760e01b14905083611408565b9181601f84011215610207578235916001600160401b038311610207576020838186019501011161020757565b90600182811c9216801561147b575b602083101461146757565b634e487b7160e01b5f52602260045260245ffd5b91607f169161145c565b6001600160401b03811161139357604052565b90601f801991011681019081106001600160401b0382111761139357604052565b602435906001600160a01b038216820361020757565b919082018092116113a757565b805467ffffffffffffffff60501b191660509290921b67ffffffffffffffff60501b16919091179055565b908060209392818452848401375f828201840152601f01601f1916010190565b60ff6001541661153357565b60405163d93c066560e01b8152600490fd5b5f80516020611a1c83398151915260028154146115625760029055565b604051633ee5aeb560e01b8152600490fd5b60405163a9059cbb60e01b5f9081526001600160a01b039384166004526024949094529260209060448180855af160015f51148116156115d3575b83604052156115bd57505050565b635274afe760e01b835216600482015260249150fd5b60018115166115e957813b15153d1516166115af565b833d5f823e3d90fd5b335f9081527ff7c9542c591017a21c74b6f3fab6263c7952fc0aaf9db4c22a2a04ddc7f8674f60205260409020547f65d7a28e3265b37a6474929f336521b332c1681b933f6cb9f3376673440d862a9060ff1615610a405750565b805f525f60205260405f20335f5260205260ff60405f20541615610a405750565b90815f525f60205260405f209060018060a01b031690815f5260205260ff60405f205416155f146116e457815f525f60205260405f20815f5260205260405f20600160ff1982541617905533917f2f8788117e7eff1d82e926ec794901d17c78024a50270940304540a733656f0d5f80a4600190565b50505f90565b90815f525f60205260405f209060018060a01b031690815f5260205260ff60405f2054165f146116e457815f525f60205260405f20815f5260205260405f2060ff19815416905533917ff6391f5c32d9c69d2a47ea670b442974b53935d1edc7fd64eb21e047a839171b5f80a4600190565b818102929181159184041417156113a757565b919082039182116113a757565b90600a81019182545f9060ff8160081c16600881101561035857600514611a14576004840194855495600386015487106107aa576117d2925f610500925561ff0019161781556001600160401b034216906114dc565b612710806117e460058601548761175c565b04906117f460068601548761175c565b049461180986611804848461176f565b61176f565b92826119d4575b86611995575b6001860180546001600160a01b03929061185490879085167f0000000000000000000000000000000000000000000000000000000000000000611574565b827f000000000000000000000000000000000000000000000000000000000000000016978383541684825416908a3b1561020757889160a45f92838e60409b8c519788968795631293b34f60e31b87526004870152602486015260016044860152606485015260848401525af1801561198b57611977575b506002019783895416813b15611973578a606484928389519586948593633478a16b60e11b855260048501526001602485015260448401525af1801561196957611952575b50509181606094927f4f8e86db99d9e0733d6d769aad2c1299f9220dc25b651a01de5dba53a6ed978d969454169754169781519384526020840152820152a4565b61195c8291611485565b6119665780611911565b80fd5b85513d84823e3d90fd5b8280fd5b611982919250611485565b5f9060026118cc565b86513d5f823e3d90fd5b60028601546119cf9088906001600160a01b03167f0000000000000000000000000000000000000000000000000000000000000000611574565b611816565b600154611a0f90849060081c6001600160a01b03167f0000000000000000000000000000000000000000000000000000000000000000611574565b611810565b505050505056fe9b779b17422d0df92223018b32b4d1fa46e071723d6817e2486d003becc55f00a2646970667358221220afd374850b7ff6823e971b827033bd2234869a663437e662a2bafb116089308b64736f6c634300081800332f8788117e7eff1d82e926ec794901d17c78024a50270940304540a733656f0dad3228b676f7d3cd4284a5443f17f1962b36e491b30a40b2405849e597ba5fb5","linkReferences":{}},"methodIdentifiers":{"BPS()":"249d39e9","DEFAULT_ADMIN_ROLE()":"a217fddf","PAUSER_ROLE()":"e63ab1e9","SETTLEMENT_ROLE()":"ba9cf01d","acceptJob(uint256,address)":"d7d86727","cancelJob(uint256)":"1dffa3dc","createJob(uint256,uint64,string,uint256,uint256)":"141165b0","disputeJob(uint256,string)":"b3120a27","feeRecipient()":"46904840","fundEscrow(uint256,uint256)":"a2d53f9a","getRoleAdmin(bytes32)":"248a9ca3","grantRole(bytes32,address)":"2f2ff15d","hasRole(bytes32,address)":"91d14854","jobs(uint256)":"180aedf3","nextJobId()":"b0c2aa5e","pause()":"8456cb59","paused()":"5c975abb","registry()":"7b103999","releasePayment(uint256)":"88685cd9","renounceRole(bytes32,address)":"36568abe","revokeRole(bytes32,address)":"d547741f","setFeeRecipient(address)":"e74b981b","startValidation(uint256)":"9385342f","submitDeliverable(uint256,bytes32)":"934b68b5","supportsInterface(bytes4)":"01ffc9a7","unpause()":"3f4ba83a","usdc()":"3e413bee","validateJob(uint256,bool,bytes32)":"d2e7ee6c"},"id":3}